{
  "_format": "hh-sol-artifact-1",
  "contractName": "Library",
  "sourceName": "contracts/Library.sol",
  "abi": [
    {
      "anonymous": false,
      "inputs": [
        {
          "indexed": false,
          "internalType": "bytes32",
          "name": "key",
          "type": "bytes32"
        },
        {
          "indexed": false,
          "internalType": "string",
          "name": "title",
          "type": "string"
        },
        {
          "indexed": false,
          "internalType": "uint256",
          "name": "copies",
          "type": "uint256"
        }
      ],
      "name": "BookAdded",
      "type": "event"
    },
    {
      "anonymous": false,
      "inputs": [
        {
          "indexed": false,
          "internalType": "bytes32",
          "name": "key",
          "type": "bytes32"
        },
        {
          "indexed": false,
          "internalType": "string",
          "name": "title",
          "type": "string"
        },
        {
          "indexed": false,
          "internalType": "address",
          "name": "borrower",
          "type": "address"
        }
      ],
      "name": "BookBorrowed",
      "type": "event"
    },
    {
      "anonymous": false,
      "inputs": [
        {
          "indexed": false,
          "internalType": "bytes32",
          "name": "key",
          "type": "bytes32"
        },
        {
          "indexed": false,
          "internalType": "string",
          "name": "title",
          "type": "string"
        },
        {
          "indexed": false,
          "internalType": "address",
          "name": "borrower",
          "type": "address"
        }
      ],
      "name": "BookReturned",
      "type": "event"
    },
    {
      "anonymous": false,
      "inputs": [
        {
          "indexed": true,
          "internalType": "address",
          "name": "previousOwner",
          "type": "address"
        },
        {
          "indexed": true,
          "internalType": "address",
          "name": "newOwner",
          "type": "address"
        }
      ],
      "name": "OwnershipTransferred",
      "type": "event"
    },
    {
      "inputs": [
        {
          "internalType": "string",
          "name": "_title",
          "type": "string"
        }
      ],
      "name": "addBooks",
      "outputs": [],
      "stateMutability": "nonpayable",
      "type": "function"
    },
    {
      "inputs": [
        {
          "internalType": "bytes32",
          "name": "",
          "type": "bytes32"
        }
      ],
      "name": "books",
      "outputs": [
        {
          "internalType": "bool",
          "name": "firstAdd",
          "type": "bool"
        },
        {
          "internalType": "uint32",
          "name": "availableCopies",
          "type": "uint32"
        },
        {
          "internalType": "string",
          "name": "title",
          "type": "string"
        }
      ],
      "stateMutability": "view",
      "type": "function"
    },
    {
      "inputs": [
        {
          "internalType": "string",
          "name": "_title",
          "type": "string"
        }
      ],
      "name": "borrowBook",
      "outputs": [],
      "stateMutability": "nonpayable",
      "type": "function"
    },
    {
      "inputs": [
        {
          "internalType": "string",
          "name": "_title",
          "type": "string"
        }
      ],
      "name": "getBookDetails",
      "outputs": [
        {
          "internalType": "string",
          "name": "",
          "type": "string"
        },
        {
          "internalType": "uint32",
          "name": "",
          "type": "uint32"
        }
      ],
      "stateMutability": "view",
      "type": "function"
    },
    {
      "inputs": [
        {
          "internalType": "string",
          "name": "_title",
          "type": "string"
        }
      ],
      "name": "getBorrowingHistory",
      "outputs": [
        {
          "internalType": "address[]",
          "name": "",
          "type": "address[]"
        }
      ],
      "stateMutability": "view",
      "type": "function"
    },
    {
      "inputs": [],
      "name": "getNumberOfBooks",
      "outputs": [
        {
          "internalType": "uint256",
          "name": "",
          "type": "uint256"
        }
      ],
      "stateMutability": "view",
      "type": "function"
    },
    {
      "inputs": [
        {
          "internalType": "string",
          "name": "_title",
          "type": "string"
        }
      ],
      "name": "isRented",
      "outputs": [
        {
          "internalType": "bool",
          "name": "",
          "type": "bool"
        }
      ],
      "stateMutability": "view",
      "type": "function"
    },
    {
      "inputs": [
        {
          "internalType": "uint256",
          "name": "",
          "type": "uint256"
        }
      ],
      "name": "iterator",
      "outputs": [
        {
          "internalType": "bytes32",
          "name": "",
          "type": "bytes32"
        }
      ],
      "stateMutability": "view",
      "type": "function"
    },
    {
      "inputs": [],
      "name": "owner",
      "outputs": [
        {
          "internalType": "address",
          "name": "",
          "type": "address"
        }
      ],
      "stateMutability": "view",
      "type": "function"
    },
    {
      "inputs": [],
      "name": "renounceOwnership",
      "outputs": [],
      "stateMutability": "nonpayable",
      "type": "function"
    },
    {
      "inputs": [
        {
          "internalType": "string",
          "name": "_title",
          "type": "string"
        }
      ],
      "name": "returnBook",
      "outputs": [],
      "stateMutability": "nonpayable",
      "type": "function"
    },
    {
      "inputs": [
        {
          "internalType": "address",
          "name": "newOwner",
          "type": "address"
        }
      ],
      "name": "transferOwnership",
      "outputs": [],
      "stateMutability": "nonpayable",
      "type": "function"
    }
  ],
  "bytecode": "0x608060405234801561001057600080fd5b5061002161001c610026565b61002a565b61007a565b3390565b600080546001600160a01b038381166001600160a01b0319831681178455604051919092169283917f8be0079c531659141344cd1fd0a4f28419497f9722a3daafe3b4186f6b6457e09190a35050565b61112d806100896000396000f3fe608060405234801561001057600080fd5b50600436106100b45760003560e01c80638625f9d2116100715780638625f9d2146101545780638da5cb5b1461015c578063972c592714610171578063a034d08414610192578063ced96fe3146101b2578063f2fde38b146101c5576100b4565b80630c0dee70146100b95780631ef49a8c146100e45780633c9d54de146100f957806355f0dcd31461010c57806362561d281461012c578063715018a61461014c575b600080fd5b6100cc6100c7366004610c55565b6101d8565b6040516100db93929190610dc2565b60405180910390f35b6100f76100f2366004610c6d565b61028f565b005b6100f7610107366004610c6d565b61040e565b61011f61011a366004610c55565b6105ba565b6040516100db9190610df2565b61013f61013a366004610c6d565b6105db565b6040516100db9190610d6a565b6100f76106d4565b61011f6106e8565b6101646106ee565b6040516100db9190610d56565b61018461017f366004610c6d565b6106fd565b6040516100db929190610e5b565b6101a56101a0366004610c6d565b610849565b6040516100db9190610db7565b6100f76101c0366004610c6d565b6108fb565b6100f76101d3366004610c27565b610ac4565b60016020819052600091825260409091208054918101805460ff841693610100900463ffffffff1692919061020c9061106c565b80601f01602080910402602001604051908101604052809291908181526020018280546102389061106c565b80156102855780601f1061025a57610100808354040283529160200191610285565b820191906000526020600020905b81548152906001019060200180831161026857829003601f168201915b5050505050905083565b806000816040516020016102a39190610d3a565b60408051601f1981840301815291815281516020928301206000818152600193849052919091205490925060ff161515146102f95760405162461bcd60e51b81526004016102f090610ec9565b60405180910390fd5b60008360405160200161030c9190610d3a565b60408051601f19818403018152918152815160209283012060008181526001845282812033825260030190935291205490915060ff1661035e5760405162461bcd60e51b81526004016102f090610f94565b60008181526001602081905260409091208054610100900463ffffffff1691610386836110a7565b825463ffffffff9182166101009390930a928302919092021990911617905550600081815260016020908152604080832033808552600390910190925291829020805460ff1916905590517f97cbec680da2d34e68123dda5e21cb1786866741ea07e3be3ea984e95d37fc9d916104009184918891610dfb565b60405180910390a150505050565b610416610afb565b6000816040516020016104299190610d3a565b60408051601f1981840301815291815281516020928301206000818152600190935291205490915060ff16610516576000818152600160208181526040909220845161047d93919092019190850190610b8e565b5060008181526001602081905260409091208054610100900463ffffffff16916104a6836110a7565b825463ffffffff9182166101009390930a92830291909202199091161790555060008181526001602081905260408220805460ff1916821790556002805491820181559091527f405787fa12a823e0f2b7631cc41b3ba8828b3321ca811111fa75cd3aa3bb5ace0181905561055e565b60008181526001602081905260409091208054610100900463ffffffff169161053e836110a7565b91906101000a81548163ffffffff021916908363ffffffff160217905550505b600081815260016020526040908190205490517f35a74433f2efe1b7f26383028ef96ad971721b608e1387507768486e938fc166916105ad918491869161010090910463ffffffff1690610e2c565b60405180910390a1505b50565b600281815481106105ca57600080fd5b600091825260209091200154905081565b6060816000816040516020016105f19190610d3a565b60408051601f1981840301815291815281516020928301206000818152600193849052919091205490925060ff1615151461063e5760405162461bcd60e51b81526004016102f090610ec9565b6000846040516020016106519190610d3a565b60408051601f19818403018152828252805160209182012060008181526001835283902060020180548084028601840190945283855290945091908301828280156106c557602002820191906000526020600020905b81546001600160a01b031681526001909101906020018083116106a7575b50505050509350505050919050565b6106dc610afb565b6106e66000610b3a565b565b60025490565b6000546001600160a01b031690565b60606000826000816040516020016107159190610d3a565b60408051601f1981840301815291815281516020928301206000818152600193849052919091205490925060ff161515146107625760405162461bcd60e51b81526004016102f090610ec9565b6000856040516020016107759190610d3a565b60408051808303601f19018152918152815160209283012060008181526001938490529190912080549201805491935091610100900463ffffffff169082906107bd9061106c565b80601f01602080910402602001604051908101604052809291908181526020018280546107e99061106c565b80156108365780601f1061080b57610100808354040283529160200191610836565b820191906000526020600020905b81548152906001019060200180831161081957829003601f168201915b5050505050915094509450505050915091565b60008160008160405160200161085f9190610d3a565b60408051601f1981840301815291815281516020928301206000818152600193849052919091205490925060ff161515146108ac5760405162461bcd60e51b81526004016102f090610ec9565b6000846040516020016108bf9190610d3a565b60408051808303601f19018152918152815160209283012060009081526001835281812033825260030190925290205460ff1695945050505050565b8060008160405160200161090f9190610d3a565b60408051601f1981840301815291815281516020928301206000818152600193849052919091205490925060ff1615151461095c5760405162461bcd60e51b81526004016102f090610ec9565b60008360405160200161096f9190610d3a565b60408051808303601f19018152918152815160209283012060008181526001909352912054909150610100900463ffffffff166109be5760405162461bcd60e51b81526004016102f090610f48565b600081815260016020908152604080832033845260030190915290205460ff16156109fb5760405162461bcd60e51b81526004016102f090610fd5565b60008181526001602081905260409091208054610100900463ffffffff1691610a238361104c565b825463ffffffff9182166101009390930a928302919092021990911617905550600081815260016020818152604080842033808652600382018452828620805460ff19168617905584845260029091018054948501815585529190932090910180546001600160a01b0319168217905590517f703d983da514728b105211061790c58d4f28f08d359f7606ec3159ed9919dbd9916104009184918891610dfb565b610acc610afb565b6001600160a01b038116610af25760405162461bcd60e51b81526004016102f090610e83565b6105b781610b3a565b610b03610b8a565b6001600160a01b0316610b146106ee565b6001600160a01b0316146106e65760405162461bcd60e51b81526004016102f090610f13565b600080546001600160a01b038381166001600160a01b0319831681178455604051919092169283917f8be0079c531659141344cd1fd0a4f28419497f9722a3daafe3b4186f6b6457e09190a35050565b3390565b828054610b9a9061106c565b90600052602060002090601f016020900481019282610bbc5760008555610c02565b82601f10610bd557805160ff1916838001178555610c02565b82800160010185558215610c02579182015b82811115610c02578251825591602001919060010190610be7565b50610c0e929150610c12565b5090565b5b80821115610c0e5760008155600101610c13565b600060208284031215610c38578081fd5b81356001600160a01b0381168114610c4e578182fd5b9392505050565b600060208284031215610c66578081fd5b5035919050565b60006020808385031215610c7f578182fd5b823567ffffffffffffffff80821115610c96578384fd5b818501915085601f830112610ca9578384fd5b813581811115610cbb57610cbb6110e1565b604051601f8201601f1916810185018381118282101715610cde57610cde6110e1565b6040528181528382018501881015610cf4578586fd5b818585018683013790810190930193909352509392505050565b60008151808452610d2681602086016020860161101c565b601f01601f19169290920160200192915050565b60008251610d4c81846020870161101c565b9190910192915050565b6001600160a01b0391909116815260200190565b6020808252825182820181905260009190848201906040850190845b81811015610dab5783516001600160a01b031683529284019291840191600101610d86565b50909695505050505050565b901515815260200190565b6000841515825263ffffffff8416602083015260606040830152610de96060830184610d0e565b95945050505050565b90815260200190565b600084825260606020830152610e146060830185610d0e565b905060018060a01b0383166040830152949350505050565b600084825260606020830152610e456060830185610d0e565b905063ffffffff83166040830152949350505050565b600060408252610e6e6040830185610d0e565b905063ffffffff831660208301529392505050565b60208082526026908201527f4f776e61626c653a206e6577206f776e657220697320746865207a65726f206160408201526564647265737360d01b606082015260800190565b6020808252602a908201527f4c69627261727920646f65736e277420636f6e7461696e207468652073706563604082015269696669656420626f6f6b60b01b606082015260800190565b6020808252818101527f4f776e61626c653a2063616c6c6572206973206e6f7420746865206f776e6572604082015260600190565b6020808252602c908201527f546865726520617265206e6f20636f7069657320617661696c61626c6520667260408201526b6f6d207468697320626f6f6b60a01b606082015260800190565b60208082526021908201527f5573657220686173206e6f7420626f72726f7765642073756368206120626f6f6040820152606b60f81b606082015260800190565b60208082526027908201527f54686520757365722068617320616c726561647920626f72726f776564207468604082015266697320626f6f6b60c81b606082015260800190565b60005b8381101561103757818101518382015260200161101f565b83811115611046576000848401525b50505050565b600063ffffffff821680611062576110626110cb565b6000190192915050565b60028104600182168061108057607f821691505b602082108114156110a157634e487b7160e01b600052602260045260246000fd5b50919050565b600063ffffffff808316818114156110c1576110c16110cb565b6001019392505050565b634e487b7160e01b600052601160045260246000fd5b634e487b7160e01b600052604160045260246000fdfea2646970667358221220220c2ad4369298aba9d9cf1f79670ee5fe997852c198af9e7a5d64636e86865364736f6c63430008000033",
  "linkReferences": {},
  "deployedLinkReferences": {}
}