{
  "_format": "hh-sol-artifact-1",
  "contractName": "USElection",
  "sourceName": "contracts/USElection.sol",
  "abi": [
    {
      "anonymous": false,
      "inputs": [
        {
          "indexed": false,
          "internalType": "uint256",
          "name": "winner",
          "type": "uint256"
        }
      ],
      "name": "LogElectionEnded",
      "type": "event"
    },
    {
      "anonymous": false,
      "inputs": [
        {
          "indexed": false,
          "internalType": "uint8",
          "name": "winner",
          "type": "uint8"
        },
        {
          "indexed": false,
          "internalType": "uint8",
          "name": "stateSeats",
          "type": "uint8"
        },
        {
          "indexed": false,
          "internalType": "string",
          "name": "state",
          "type": "string"
        }
      ],
      "name": "LogStateResult",
      "type": "event"
    },
    {
      "inputs": [],
      "name": "currentLeader",
      "outputs": [
        {
          "internalType": "uint8",
          "name": "",
          "type": "uint8"
        }
      ],
      "stateMutability": "view",
      "type": "function"
    },
    {
      "inputs": [],
      "name": "electionEnded",
      "outputs": [
        {
          "internalType": "bool",
          "name": "",
          "type": "bool"
        }
      ],
      "stateMutability": "view",
      "type": "function"
    },
    {
      "inputs": [],
      "name": "endElection",
      "outputs": [],
      "stateMutability": "nonpayable",
      "type": "function"
    },
    {
      "inputs": [],
      "name": "owner",
      "outputs": [
        {
          "internalType": "address",
          "name": "",
          "type": "address"
        }
      ],
      "stateMutability": "view",
      "type": "function"
    },
    {
      "inputs": [
        {
          "components": [
            {
              "internalType": "string",
              "name": "name",
              "type": "string"
            },
            {
              "internalType": "uint256",
              "name": "votesBiden",
              "type": "uint256"
            },
            {
              "internalType": "uint256",
              "name": "votesTrump",
              "type": "uint256"
            },
            {
              "internalType": "uint8",
              "name": "stateSeats",
              "type": "uint8"
            }
          ],
          "internalType": "struct USElection.StateResult",
          "name": "result",
          "type": "tuple"
        }
      ],
      "name": "submitStateResult",
      "outputs": [],
      "stateMutability": "nonpayable",
      "type": "function"
    }
  ],
  "bytecode": "0x608060405234801561001057600080fd5b50600080546001600160a01b03191633179055610706806100326000396000f3fe608060405234801561001057600080fd5b50600436106100575760003560e01c806359f784681461005c5780638da5cb5b14610066578063ac4bd53a14610084578063c94ca9e314610099578063e494a883146100ae575b600080fd5b6100646100c1565b005b61006e610171565b60405161007b91906104cf565b60405180910390f35b61008c610180565b60405161007b9190610602565b6100a1610252565b60405161007b91906104e3565b6100646100bc36600461045f565b610262565b6000546001600160a01b031633146100f45760405162461bcd60e51b81526004016100eb906105cb565b60405180910390fd5b600054600160a01b900460ff161561011e5760405162461bcd60e51b81526004016100eb90610554565b6000805460ff60a01b1916600160a01b1790557faacb23683ec1a0e9b52f9a6264edf58ad322ac62079d65ea7363a2d400f439f461015a610180565b6040516101679190610602565b60405180910390a1565b6000546001600160a01b031681565b600160208190527fd9d16d34ffb15ba3a3d852f0d403e2ce1d691fb54de27ac87cd2f993f3ec330f5460009182527fcc69885fda6bcc1a4ace058b4a62bf5e179ea78fd58a1ccd71c22cc9b688792f5460ff908116911614156101e55750600061024f565b600160208190527fd9d16d34ffb15ba3a3d852f0d403e2ce1d691fb54de27ac87cd2f993f3ec330f546000919091527fcc69885fda6bcc1a4ace058b4a62bf5e179ea78fd58a1ccd71c22cc9b688792f5460ff91821691161161024957600261024c565b60015b90505b90565b600054600160a01b900460ff1681565b6000546001600160a01b0316331461028c5760405162461bcd60e51b81526004016100eb906105cb565b600054600160a01b900460ff16156102b65760405162461bcd60e51b81526004016100eb90610554565b60006102c8608083016060840161049e565b60ff16116102e85760405162461bcd60e51b81526004016100eb90610596565b8060400135816020013514156103105760405162461bcd60e51b81526004016100eb90610525565b600261031c8280610653565b60405161032a9291906104bf565b9081526040519081900360200190205460ff161561035a5760405162461bcd60e51b81526004016100eb906104ee565b600160026103688380610653565b6040516103769291906104bf565b908152602001604051809103902060006101000a81548160ff02191690831515021790555060008160400135826020013511156103b5575060016103b9565b5060025b6103c9608083016060840161049e565b60ff8083166000908152600160205260408120805490926103ec9185911661069f565b92506101000a81548160ff021916908360ff1602179055507fa2e71fe38f1afa3762cf9d2ea7bb6a4d272a90fd6f9392f3acedd3b542046b4681836060016020810190610439919061049e565b6104438580610653565b6040516104539493929190610610565b60405180910390a15050565b600060208284031215610470578081fd5b813567ffffffffffffffff811115610486578182fd5b820160808185031215610497578182fd5b9392505050565b6000602082840312156104af578081fd5b813560ff81168114610497578182fd5b6000828483379101908152919050565b6001600160a01b0391909116815260200190565b901515815260200190565b6020808252601d908201527f526573756c74732061726520616c7265616479207375626d6974746564000000604082015260600190565b60208082526015908201527454686572652063616e6e6f7420626520612074696560581b604082015260600190565b60208082526022908201527f54686520656c656374696f6e206973206e6f742061637469766520616e796d6f604082015261726560f01b606082015260800190565b6020808252818101527f537461746573206d7573742068617665206174206c6561737420312073656174604082015260600190565b60208082526018908201527f4e6f7420696e766f6b656420627920746865206f776e65720000000000000000604082015260600190565b60ff91909116815260200190565b600060ff8616825260ff851660208301526060604083015282606083015282846080840137818301608090810191909152601f909201601f191601019392505050565b6000808335601e19843603018112610669578283fd5b83018035915067ffffffffffffffff821115610683578283fd5b60200191503681900382131561069857600080fd5b9250929050565b600060ff821660ff84168060ff038211156106c857634e487b7160e01b83526011600452602483fd5b01939250505056fea2646970667358221220b17030693a32d05824332acf07c10052f04c3c0543f7f218f636d02de54d93f864736f6c63430008000033",
  "linkReferences": {},
  "deployedLinkReferences": {}
}